:100000005DC0000080C000007EC000007CC0000019
:100010007AC0000078C0000076C0000074C0000004
:1000200072C0000070C000006EC000006CC0000014
:100030006AC0000068C0000066C0000064C0000024
:100040008DC3000060C0000003C2000033C2000086
:100050005AC0000058C0000056C0000054C0000044
:1000600052C0000050C00000000000080002010063
:100070000003040700000000000000000102040863
:100080001020408001020408102001020408102002
:10009000040404040404040402020202020203032E
:1000A0000303030300000000250028002B000000CC
:1000B0000000240027002A00C700880211241FBE68
:1000C000CFEFD8E0DEBFCDBF11E0A0E0B1E0E0EAC5
:1000D000FAE002C005900D92A233B107D9F721E0F2
:1000E000A2E3B1E001C01D92AC3EB207E1F710E01F
:1000F000CEE5D0E003C02197FE01CAD4CC35D107AC
:10010000D1F722D3CBC47CCFDC0115966C93159725
:1001100016964C93169770E0FB01E458FF4FE4915C
:100120001796EC931797FB01E057FF4F64911896D1
:100130006C93189740E85EE360E070E01D964D9385
:100140005D936D937C9350970895CF93DF93EC016B
:1001500062E08D810FD480E398EFAFEFBFEF898726
:100160009A87AB87BC87DF91CF91089526E040E066
:1001700052EC61E070E086E491E007D161E08DE04F
:10018000F9D360E08DE032D484E391E0DECF26E065
:1001900046E162E084E391E0B7CF86E491E023D0CA
:1001A00018161906C4F486E491E037D09093330111
:1001B0008093320160E071E086E491E016D26091B4
:1001C0003201709133014AE050E086E491E0A6D21A
:1001D00061E08DE00BD460E08DE008D464E670E06F
:1001E00080E090E02AC3FC01918D228D892F90E060
:1001F000805C9F4F821B91098F7399270895FC01A2
:10020000918D828D981731F0828DE80FF11D858DCB
:1002100090E008958FEF9FEF0895FC01918D828DFE
:10022000981761F0828DDF01A80FB11D5D968C914A
:10023000928D9F5F9F73928F90E008958FEF9FEF55
:100240000895FC01538D448D252F30E0842F90E0DC
:10025000821B930B541710F0CF96089501970895C1
:100260008FE792E0892B41F080E090E0892B21F02C
:1002700046D181110C9400000895FC01848DDF01AA
:10028000A80FB11DA35ABF4F2C91848D90E0019609
:100290008F739927848FA689B7892C93A089B189F8
:1002A0008C9180648C93938D848D981306C0028802
:1002B000F389E02D80818F7D80830895CF93DF9334
:1002C000EC01888D8823C1F0EA89FB89808185FD56
:1002D00005C0A889B9898C9186FD0EC00FB607FCB0
:1002E000F5CF808185FFF2CFA889B9898C9185FFF0
:1002F000EDCFCE01C2DFE8CFDF91CF910895EF922D
:10030000FF920F931F93CF93DF93EC0181E0888FCF
:100310009B8D8C8D981305C0E889F989808185FDB6
:1003200023C0F62E0B8D10E00F5F1F4F0F731127A8
:10033000E02E8C8DE8120BC00FB607FCFACFE889CF
:10034000F989808185FFF5CFCE0197DFF2CF8B8DC4
:10035000FE01E80FF11DE35AFF4FF0820B8FEA898F
:10036000FB898081806207C0EE89FF896083E8890C
:10037000F98980818064808381E090E0DF91CF9172
:100380001F910F91FF90EF900895CF92DF92EF921F
:10039000FF921F93CF93DF93EC016A017B01122F31
:1003A000E889F98982E080834115514E6105710524
:1003B000A9F060E079E08DE390E0A701960146D3D3
:1003C000DA01C9010197A109B109B695A7959795D9
:1003D0008795AC01411580E15807A0F0E889F989BB
:1003E000108260E874E88EE190E0A70196012ED3B8
:1003F000BA01A901415051096109710976956795C2
:1004000057954795EC85FD855083EE85FF854083A4
:10041000188EEC89FD891083EA89FB8980818061CF
:100420008083EA89FB89808188608083EA89FB89EF
:10043000808180688083EA89FB8980818F7D8083C9
:10044000DF91CF911F91FF90EF90DF90CF900895B3
:100450001F920F920FB60F9211242F938F939F9399
:10046000EF93FF93E0915601F09157018081E09165
:100470005C01F0915D0182FD12C0908180915F016D
:100480008F5F8F7320916001821751F0E0915F01BF
:10049000F0E0EA5BFE4F958F80935F0101C08081A1
:1004A000FF91EF919F918F912F910F900FBE0F9021
:1004B0001F9018951F920F920FB60F9211242F9331
:1004C0003F934F935F936F937F938F939F93AF93DC
:1004D000BF93EF93FF9386E491E0CFDEFF91EF911E
:1004E000BF91AF919F918F917F916F915F914F914C
:1004F0003F912F910F900FBE0F901F90189586E49B
:1005000091E071DE21E0892B09F420E0822F08952B
:10051000E6E4F1E01382128288EE93E0A0E0B0E01E
:1005200084839583A683B78385E191E0918380835B
:1005300085EC90E09587848784EC90E097878687A8
:1005400080EC90E0918B808B81EC90E0938B828BA0
:1005500082EC90E0958B848B86EC90E0978B868B79
:10056000118E128E138E148E0895CF92DF92EF9219
:10057000FF920F931F93CF93DF936C017A018B014E
:10058000C0E0D0E0CE15DF0589F0D8016D918D0176
:10059000D601ED91FC910190F081E02DC601099505
:1005A000892B11F47E0102C02196ECCFC701DF91A7
:1005B000CF911F910F91FF90EF90DF90CF90089512
:1005C0006115710579F0FB0101900020E9F7319781
:1005D000AF01461B570BDC01ED91FC910280F381CA
:1005E000E02D099480E090E00895EACFDC01ED91E0
:1005F000FC910190F081E02D099463E271E0E0CF7D
:100600004F925F926F927F92EF92FF920F931F93A0
:10061000CF93DF93CDB7DEB7A1970FB6F894DEBFC7
:100620000FBECDBF7C01FA01CB0119A2223008F424
:100630002AE08E010F5D1F4F422E512C612C712C30
:10064000BF01A301920102D2F901CA0101501109AF
:100650006A3014F4605D01C0695CD8016C93232B8F
:10066000242B252B69F7B801C701AADFA1960FB685
:10067000F894DEBF0FBECDBFDF91CF911F910F91D8
:10068000FF90EF907F906F905F904F900895CF9282
:10069000DF92EF92FF920F931F93CF93DF93EC01C2
:1006A0006A017B012115310579F4E881F981019016
:1006B000F081E02D642FDF91CF911F910F91FF907A
:1006C000EF90DF90CF9009942A303105D9F477FF6D
:1006D00018C06DE28BDF8C0144275527BA014C19F5
:1006E0005D096E097F092AE0CE018ADF800F911F24
:1006F000DF91CF911F910F91FF90EF90DF90CF90FE
:1007000008952AE0B701A601CE01DF91CF911F9194
:100710000F91FF90EF90DF90CF9072CF0F931F93C8
:10072000CF93DF93EC019A01AB01770F660B770B48
:10073000AEDF8C01CE0161DF800F911FDF91CF9181
:100740001F910F9108950895B1D0FDDF0FDDC0E333
:10075000D1E023DD2097E9F383DDFBCF1F920F92D9
:100760000FB60F9211242F933F938F939F93AF93C4
:10077000BF938091E4019091E501A091E601B091D1
:10078000E7013091E30123E0230F2D3720F4019698
:10079000A11DB11D05C026E8230F0296A11DB11DA4
:1007A0002093E3018093E4019093E501A093E60197
:1007B000B093E7018091E8019091E901A091EA01ED
:1007C000B091EB010196A11DB11D8093E8019093BA
:1007D000E901A093EA01B093EB01BF91AF919F9122
:1007E0008F913F912F910F900FBE0F901F901895F2
:1007F0003FB7F8948091E8019091E901A091EA0156
:10080000B091EB0126B5A89B05C02F3F19F00196CA
:10081000A11DB11D3FBFBA2FA92F982F8827820F86
:10082000911DA11DB11DBC01CD0142E0660F771FD6
:10083000881F991F4A95D1F708958F929F92AF9282
:10084000BF92CF92DF92EF92FF926B017C01D0DFDB
:100850004B015C01C114D104E104F104F1F0F5D0C5
:10086000C7DFDC01CB0188199909AA09BB09883EB9
:100870009340A105B10570F321E0C21AD108E10847
:10088000F10888EE880E83E0981EA11CB11CC114EB
:10089000D104E104F10421F7DDCFFF90EF90DF9068
:1008A000CF90BF90AF909F908F900895789484B52B
:1008B000826084BD84B5816084BD85B5826085BD5C
:1008C00085B5816085BDEEE6F0E080818160808342
:1008D000E1E8F0E010828081826080838081816025
:1008E0008083E0E8F0E0808181608083E1EBF0E0EC
:1008F000808184608083E0EBF0E080818160808390
:10090000EAE7F0E080818460808380818260808378
:100910008081816080838081806880831092C100A3
:100920000895833081F028F4813099F08230A1F06D
:1009300008958730A9F08830B9F08430D1F48091DF
:1009400080008F7D03C0809180008F77809380002E
:10095000089584B58F7702C084B58F7D84BD0895D6
:100960008091B0008F7703C08091B0008F7D80931D
:10097000B0000895CF93DF9390E0FC01E458FF4F5F
:100980002491FC01E057FF4F8491882361F190E0AE
:10099000880F991FFC01E255FF4FC591D491FC01CE
:1009A000EC55FF4FA591B491611109C09FB7F89420
:1009B0008881209582238883EC912E230BC062309E
:1009C00061F49FB7F8943881822F809583238883C0
:1009D000EC912E2B2C939FBF06C08FB7F894E88123
:1009E0002E2B28838FBFDF91CF9108951F93CF9334
:1009F000DF93282F30E0F901E859FF4F8491F90186
:100A0000E458FF4FD491F901E057FF4FC491CC2334
:100A1000C1F0162F811185DFEC2FF0E0EE0FFF1FE4
:100A2000EC55FF4FA591B4918FB7F894111105C003
:100A30009C91ED2FE095E92302C0EC91ED2BEC9316
:100A40008FBFDF91CF911F9108950895A1E21A2ED3
:100A5000AA1BBB1BFD010DC0AA1FBB1FEE1FFF1F62
:100A6000A217B307E407F50720F0A21BB30BE40BB2
:100A7000F50B661F771F881F991F1A9469F76095F9
:100A80007095809590959B01AC01BD01CF010895B3
:100A9000EE0FFF1F0590F491E02D0994F894FFCF1D
:100AA00049277665207265636569766564203A201A
:100AB00000000000007F01B50221015E01F3000D7E
:100AC00001FF000D0A006E616E00696E66006F76B0
:020AD0006600BE
:00000001FF
