:1000000062C0000087C0000085C0000069C1000018
:1000100067C1000065C100007DC000007BC000001A
:1000200079C0000077C0000075C0000073C00000F8
:1000300071C000006FC000006DC000006BC0000008
:10004000DFC5000067C0000065C0000063C000009D
:1000500061C000005FC000005DC000005BC0000028
:1000600059C0000057C00000000000080002010055
:100070000003040700000000000000000102040863
:100080001020408001020408102001020408102002
:10009000040404040404040402020202020203032E
:1000A00003030303000000002300260029000000D2
:1000B0000000250028002B0000000000240027007D
:1000C0002A0002050E0511241FBECFEFD8E0DEBFC7
:1000D000CDBF11E0A0E0B1E0E2E1F5E102C00590A2
:1000E0000D92A432B107D9F721E0A4E2B1E001C03A
:1000F0001D92A73AB207E1F710E0C2E6D0E004C0D3
:100100002197FE010E944A09C136D107C9F76CD573
:100110000C947D0A75CF80E090E0089520916601EF
:100120003091670128173907B9F490912401809123
:100130002501981789F0E0912401F0E0EA5DFE4F77
:1001400080812091240130E02F5F3F4F2F733327B0
:100150002093240190E008958FEF9FEF08951F935F
:10016000CF93DF93DC015C962D913C915D97211537
:10017000310539F481E090E013969C938E931297A9
:100180003DC05196ED91FC91529750969C9150979D
:10019000892F80951FB75E964C915E9741FB77271C
:1001A00070F941FD6095F8944081772311F0492B57
:1001B00001C048234083E9012197F1F748E05081CD
:1001C00060FF02C0592B01C058235083E9012197D9
:1001D000F1F76695415099F7772321F090818923B3
:1001E000808303C08081982B90831FBF5C968D9184
:1001F0009C915D970197F1F721E030E0C901DF9113
:10020000CF911F9108950895209166013091670163
:100210002817390771F490912401809125019817CE
:1002200041F0E0912401F0E0EA5DFE4F808190E032
:1002300008958FEF9FEF0895209166013091670137
:100240002817390761F4809125012091240190E05D
:10025000805C9F4F821B910960E470E0B6C780E02C
:1002600090E00895E0916601F0916701E817F907C1
:1002700069F4A389B4899C918589809589238C939D
:10028000109267011092660181E0089580E0089560
:10029000CF93DF93EC018A8D9B8D892BE9F08091C0
:1002A0006601909167018C179D07B1F0009709F0E6
:1002B000D9DF8E8D8E7F8E8F1092250110922401B2
:1002C000D0936701C0936601EB89FC8990818D8989
:1002D000892B808381E001C080E0DF91CF91089578
:1002E0001F920F920FB60F9211242F933F934F93AB
:1002F0005F936F937F938F939F93AF93BF93EF938E
:10030000FF93E0916601F0916701309709F451C0C5
:10031000968DA685B785858591FF04C09C9189231C
:1003200029F447C09C91892309F043C0A389B4896B
:100330009C918589809589238C93868997890197DB
:10034000F1F7608D718DA685B785558538E020E081
:10035000CB010197F1F7822F90E095958795282F93
:100360004C91452309F02068315091F7868D81FD2D
:1003700020958091250190E001968F739927309107
:100380002401381749F0A0912501B0E0AA5DBE4FC5
:100390002C938093250103C0868D8160868F828D8A
:1003A000938D0197F1F7A389B4899C918589892B55
:1003B0008C93FF91EF91BF91AF919F918F917F911E
:1003C0006F915F914F913F912F910F900FBE0F90C2
:1003D0001F9018952EE031E0FC013183208342CF3D
:1003E0001F93CF93DF93EC01162F6E8D669561708E
:1003F00081E06827812F63D561E0812F24D5612FAB
:1004000070E0FB01E458FF4FE491E88BFB01E057FB
:10041000FF4FE491F0E0EE0FFF1FE255FF4F859193
:1004200094919A8B898BDF91CF911F9108951F939F
:10043000CF93DF93EC01162F60E0812F04D58E8DD2
:1004400081FD03C061E0812F3AD51C87612F70E0E8
:10045000FB01E458FF4FE491ED87FB01E057FF4FAC
:10046000E491F0E0EE0FFF1FEC55FF4F8591949162
:100470009F878E87DF91CF911F9108951F93CF9310
:10048000DF93EC01162F1B821A8288EE93E0A0E026
:10049000B0E08C839D83AE83BF838EE091E099832F
:1004A00088831F8A1E8A198E188E1B8E1A8E1D8EA7
:1004B0001C8E8E8D8E7F20FB81F98E8F642FCE0156
:1004C0008FDF612FCE01DF91CF911F91B0CFCF93FE
:1004D000DF93EC019A01AB011B8E1A8E198E188ED8
:1004E0001F8A1E8A60E079E08DE390E0A3D6F901CF
:1004F0002430310518F0C901039702C081E090E073
:100500009D8F8C8F6C85663108F069C0C901969506
:1005100087958431910510F0439702C081E090E007
:100520009F8B8E8B369718F0C901059702C081E02A
:1005300090E0998F888FC901880F991F280F391F64
:1005400036952795369527952D30310518F02C5086
:10055000310902C021E030E03B8F2A8F9091680082
:10056000683050F021E06E3008F420E081E001C0F6
:10057000880F2A95EAF701C084E0892B80936800F0
:100580008C85883038F08E3040F0863148F020E09D
:1005900030E008C02DE630E005C02BE630E002C0B8
:1005A0002CE630E03C8B2B8B883030F491E001C09E
:1005B000990F8A95EAF70EC0282F30E08E3018F494
:1005C0002850310902C02E50310991E001C0990F25
:1005D0002A95EAF79D8B8C8D9D8D0197F1F7CE01C1
:1005E000DF91CF9155CEDC0115966C931597169639
:1005F0004C93169770E0FB01E458FF4FE491179677
:10060000EC931797FB01E057FF4F649118966C939A
:10061000189740E85EE360E070E01D964D935D93AF
:100620006D937C9350970895CF93DF93EC0162E034
:100630008D8109D480E398EFAFEFBFEF89879A8768
:10064000AB87BC87DF91CF9108958F929F92AF9235
:10065000BF92CF92DF92EF92FF920F931F93CF93AF
:10066000DC011796CC911797662311F08C2F01C0EF
:1006700080E018962C91189730E0220F331F2C55EC
:100680003F4F40E050E0BA01F90105911491F801A3
:1006900090819C23981315C06A017B019FEFC91AB2
:1006A000D90AE90AF90A1D968D909D90AD90BC90EB
:1006B0005097481559056A057B0538F4B701A6011E
:1006C000E3CF342F252FCB0104C030E020E080E0C1
:1006D00090E0632F722FCF911F910F91FF90EF90B9
:1006E000DF90CF90BF90AF909F908F9008958F92A2
:1006F0009F92AF92BF92CF92DF92EF92FF920F93B1
:100700001F93CF93DF93CDB7DEB7C054D1400FB660
:10071000F894DEBF0FBECDBF8C01F62EBBD2F11018
:1007200016C0F801C184D284E384F4849B01AC0137
:100730002C193D094E095F0969017A0130EDC31694
:1007400037E0D306E104F10410F48189A7C0F80171
:100750006187728783879487148213821282118241
:10076000108261E08581ABD36AEF70E080E090E0B9
:10077000C2D261E0F801858166D360E0F80185812D
:100780009ED364E170E080E090E0B5D2F89461E03F
:10079000F801858194D388E290E0E6D262E0F80126
:1007A000858151D38AE090E0DFD260E0C8014DDF5F
:1007B000672B682B692B21F4F801118A78943FC0CC
:1007C00061E0C80142DF672B682B692BA9F39E010A
:1007D0002F5F3F4F79015E013FEBA31A3EEFB30A53
:1007E000670160E0C80131DFF601608371838283B5
:1007F000938361E0C80129DFF601648375838683F2
:100800009783F8E0CF0ED11CCA14DB0451F778941B
:1008100020E030E0F7014081518162817381848062
:100820009580A680B780411551056105710529F0B5
:1008300081149104A104B10421F4F801118A80E02B
:100840002DC0F90183E0F595E7958A95E1F7E00F72
:10085000F11F8081880F481559056A057B0508F44A
:10086000816080832F5F3F4FF8E0EF0EF11C28324C
:10087000310581F6F801248130E04081818190E0EA
:10088000840F911D4281840F911D4381840F911D1E
:1008900099272817390789F681E0818BC05CDE4FE4
:1008A0000FB6F894DEBF0FBECDBFDF91CF911F9181
:1008B0000F91FF90EF90DF90CF90BF90AF909F90FF
:1008C0008F900895CF92DF92EF92FF920F931F9334
:1008D000CF93DF93EC01162F642F09DF882309F4EF
:1008E0003CC08E818B3031F008F437C085518230A6
:1008F00038F033C06A8170E080E090E075D320C0AA
:100900000A81602F6F7770E080E090E06FD320E085
:1009100030E040E853E4F6D36B017C018B81682F13
:1009200070E080E090E062D39B01AC01C701B601AA
:10093000F7D22DEC3CEC4CEC5DE3E4D307FD905892
:10094000112379F026E636E646EE5FE3DBD320E0BE
:1009500030E040E052E4E4D204C060E070E080ECBB
:100960009FE7DF91CF911F910F91FF90EF90DF9064
:10097000CF900895CF92DF92EF92FF92CF93DF93C3
:10098000EC0160E0B4DE882351F18E818B3009F1F7
:1009900030F18551823018F5688170E080E090E098
:1009A00023D320E030E040E853E4ACD36B017C017A
:1009B0008981682F70E080E090E018D39B01AC0142
:1009C000C701B601ADD22DEC3CEC4CEC5DE39AD303
:1009D0000AC0688170E080E090E006D304C060E067
:1009E00070E080EC9FE7DF91CF91FF90EF90DF9078
:1009F000CF900895089503C120E231E0FC013183D6
:100A00002083089526E04BE062E088E891E0EBDD8A
:100A100020E044E063E089E691E030CD89E691E0B2
:100A2000D9CCCF93DF9300D0CDB7DEB7CE010196FE
:100A3000E3DF40E052EC61E070E089E691E047DD01
:100A400061E08DE000D260E08DE039D288E891E08D
:100A5000EBDDCE010196CEDF0F900F90DF91CF91AD
:100A60000895CF92DF92EF92FF921F93CF93DF937F
:100A7000CDB7DEB728970FB6F894DEBF0FBECDBF57
:100A800089E691E0D9DB181619060CF06FC089E6EB
:100A900091E044DB80936801992720910801022EA0
:100AA000000C330B8217930741F440E060E088E8C4
:100AB00091E008DF6B017C0103C0C12CD12C7601D1
:100AC0002091680130E080910701082E000C990BFD
:100AD0002817390729F460E088E891E04BDF03C06C
:100AE00060E070E0CB014091680150E02091060188
:100AF000022E000C330B4217530759F440E060E01C
:100B000088E891E0DFDE6B017C0160E088E891E03D
:100B100031DFCD82DE82EF82F88669837A838B8330
:100B20009C836091090189E691E019DB609168017D
:100B300089E691E014DB7E0185E0E80EF11C10E00F
:100B40001F5FF70161917F0189E691E008DB1430B6
:100B5000B9F7CE0101967C0110E01F5FF7016191AA
:100B60007F0189E691E0FBDA1430B9F768EC70E0B8
:100B700080E090E028960FB6F894DEBF0FBECDBFA0
:100B8000DF91CF911F91FF90EF90DF90CF90B3C096
:100B9000CF92DF92EF92FF920F931F93CF93DF9349
:100BA0006C017A018B01C0E0D0E0CE15DF0589F041
:100BB000D8016D918D01D601ED91FC910190F081EC
:100BC000E02DC6010995892B11F47E0102C0219602
:100BD000ECCFC701DF91CF911F910F91FF90EF9064
:100BE000DF90CF9008950895CAD0FDDF1ADFC0E0EE
:100BF000D0E037DF2097E9F30E940000FACFE5C389
:100C00001F920F920FB60F9211242F933F938F9341
:100C10009F93AF93BF9380919B0190919C01A09172
:100C20009D01B0919E0130919A0123E0230F2D3751
:100C300020F40196A11DB11D05C026E8230F0296E0
:100C4000A11DB11D20939A0180939B0190939C015B
:100C5000A0939D01B0939E0180919F019091A0016E
:100C6000A091A101B091A2010196A11DB11D809397
:100C70009F019093A001A093A101B093A201BF9105
:100C8000AF919F918F913F912F910F900FBE0F9039
:100C90001F9018952FB7F89460919B0170919C015B
:100CA00080919D0190919E012FBF08953FB7F894C8
:100CB00080919F019091A001A091A101B091A2010A
:100CC00026B5A89B05C02F3F19F00196A11DB11DA7
:100CD0003FBFBA2FA92F982F8827820F911DA11DE2
:100CE000B11DBC01CD0142E0660F771F881F991F1F
:100CF0004A95D1F708958F929F92AF92BF92CF926B
:100D0000DF92EF92FF926B017C01D0DF4B015C011F
:100D1000C114D104E104F104F1F000D1C7DFDC011A
:100D2000CB0188199909AA09BB09883E9340A105FE
:100D3000B10570F321E0C21AD108E108F10888EE8C
:100D4000880E83E0981EA11CB11CC114D104E104DB
:100D5000F10421F7DDCFFF90EF90DF90CF90BF90AF
:100D6000AF909F908F9008958230910538F0880F52
:100D7000991F880F991F05970197F1F708957894A7
:100D800084B5826084BD84B5816084BD85B5826090
:100D900085BD85B5816085BDEEE6F0E0808181602E
:100DA0008083E1E8F0E0108280818260808380812E
:100DB00081608083E0E8F0E0808181608083E1EB06
:100DC000F0E0808184608083E0EBF0E080818160EE
:100DD0008083EAE7F0E080818460808380818260A4
:100DE000808380818160808380818068808310928D
:100DF000C1000895833081F028F4813099F0823069
:100E0000A1F008958730A9F08830B9F08430D1F48A
:100E1000809180008F7D03C0809180008F778093C8
:100E20008000089584B58F7702C084B58F7D84BD1E
:100E300008958091B0008F7703C08091B0008F7DBE
:100E40008093B0000895CF93DF9390E0FC01E458C5
:100E5000FF4F2491FC01E057FF4F8491882361F1FB
:100E600090E0880F991FFC01E854FF4FC591D49181
:100E7000FC01E255FF4FA591B491611109C09FB7E4
:100E8000F8948881209582238883EC912E230BC0CF
:100E9000623061F49FB7F8943881822F8095832364
:100EA0008883EC912E2B2C939FBF06C08FB7F894AC
:100EB000E8812E2B28838FBFDF91CF9108951F9358
:100EC000CF93DF93282F30E0F901E859FF4F849149
:100ED000F901E458FF4FD491F901E057FF4FC49155
:100EE000CC23C1F0162F811185DFEC2FF0E0EE0F3F
:100EF000FF1FE255FF4FA591B4918FB7F8941111E0
:100F000005C09C91ED2FE095E92302C0EC91ED2BFB
:100F1000EC938FBFDF91CF911F91089508955058A2
:100F2000BB27AA270ED0B4C0A5D030F0AAD020F09D
:100F300031F49F3F11F41EF49AC00EF4E095E7FBE4
:100F400090C0E92FB6D080F3BA1762077307840701
:100F5000950718F071F49EF5CEC00EF4E0950B2EB7
:100F6000BA2FA02D0B01B90190010C01CA01A001FB
:100F70001124FF27591B99F0593F50F4503E68F156
:100F80001A16F040A22F232F342F4427585FF3CF97
:100F9000469537952795A795F0405395C9F77EF468
:100FA0001F16BA0B620B730B840BBAF09150A1F0B1
:100FB000FF0FBB1F661F771F881FC2F70EC0BA0F37
:100FC000621F731F841F48F4879577956795B795BF
:100FD000F7959E3F08F0B3CF9395880F08F09927B7
:100FE000EE0F979587950895E89409C097FB3EF416
:100FF00090958095709561957F4F8F4F9F4F992366
:10100000A9F0F92F96E9BB279395F69587957795E3
:101010006795B795F111F8CFFAF4BB0F11F460FFA3
:101020001BC06F5F7F4F8F4F9F4F16C0882311F0FB
:1010300096E911C0772321F09EE8872F762F05C00F
:10104000662371F096E8862F70E060E02AF09A95AA
:10105000660F771F881FDAF7880F9695879597F99F
:10106000089597F99F6780E870E060E008959FEF2A
:1010700080EC089500240A9416161706180609062F
:10108000089500240A9412161306140605060895FE
:10109000092E0394000C11F4882352F0BB0F40F486
:1010A000BF2B11F460FF04C06F5F7F4F8F4F9F4FC6
:1010B000089557FD9058440F551F59F05F3F71F048
:1010C0004795880F97FB991F61F09F3F79F08795AF
:1010D0000895121613061406551FF2CF4695F1DF38
:1010E00008C0161617061806991FF1CF86957105C8
:1010F000610508940895E894BB2766277727CB01FC
:1011000097F908950BD0C4CFB5DF28F0BADF18F0F7
:10111000952309F0A6CFABCF1124EECFCADFA0F301
:10112000959FD1F3950F50E0551F629FF001729F7C
:10113000BB27F00DB11D639FAA27F00DB11DAA1F9B
:10114000649F6627B00DA11D661F829F2227B00DE8
:10115000A11D621F739FB00DA11D621F839FA00D73
:10116000611D221F749F3327A00D611D231F849FC3
:10117000600D211D822F762F6A2F11249F5750401A
:101180008AF0E1F088234AF0EE0FFF1FBB1F661FB5
:10119000771F881F91505040A9F79E3F510570F06E
:1011A00060CFAACF5F3FECF3983EDCF3869577954E
:1011B0006795B795F795E7959F5FC1F7FE2B880F69
:1011C000911D9695879597F9089597FB072E16F42C
:1011D000009406D077FD08D049D007FC05D03EF436
:1011E000909581959F4F0895709561957F4F0895D3
:1011F000A1E21A2EAA1BBB1BFD010DC0AA1FBB1F1B
:10120000EE1FFF1FA217B307E407F50720F0A21B8C
:10121000B30BE40BF50B661F771F881F991F1A94F9
:1012200069F760957095809590959B01AC01BD0123
:10123000CF010895052E97FB16F400940FD057FDAB
:1012400005D0D6DF07FC02D046F408C05095409583
:10125000309521953F4F4F4F5F4F08959095809562
:10126000709561957F4F8F4F9F4F0895AA1BBB1BB1
:1012700051E107C0AA1FBB1FA617B70710F0A61B96
:10128000B70B881F991F5A95A9F780959095BC01B7
:10129000CD010895EE0FFF1F0590F491E02D099404
:1012A000CF93DF938230910510F482E090E0E091DB
:1012B000A501F091A60120E030E0C0E0D0E0309739
:1012C00011F14081518148175907C0F0481759075B
:1012D00061F482819381209719F09B838A832BC0CC
:1012E0009093A6018093A50126C02115310519F020
:1012F0004217530718F49A01BE01DF01EF01028083
:10130000F381E02DDCCF2115310509F1281B390BC4
:101310002430310590F412968D919C9113976115AC
:10132000710521F0FB019383828304C09093A60191
:101330008093A501FD01329644C0FD01E20FF31F29
:1013400081939193225031092D933C933AC020917F
:10135000A3013091A401232B41F42091020130918B
:1013600003013093A4012093A30120910001309147
:1013700001012115310541F42DB73EB7409104011B
:1013800050910501241B350BE091A301F091A401BC
:10139000E217F307A0F42E1B3F0B2817390778F04C
:1013A000AC014E5F5F4F2417350748F04E0F5F1FAB
:1013B0005093A4014093A3018193919302C0E0E074
:1013C000F0E0CF01DF91CF9108950F931F93CF935A
:1013D000DF93009709F48CC0FC01329713821282CC
:1013E0000091A5011091A6010115110581F420813C
:1013F0003181820F931F2091A3013091A4012817FE
:10140000390779F5F093A401E093A30171C0D801E5
:1014100040E050E0AE17BF0750F412962D913C917A
:101420001397AD012115310509F1D901F3CF9D01C4
:10143000DA013383228360817181860F971F8217BF
:10144000930769F4EC0128813981260F371F2E5F3D
:101450003F4F318320838A819B8193838283452BF5
:1014600029F4F093A601E093A50142C01396FC93E2
:10147000EE931297ED01499159919E01240F351F6A
:10148000E217F30771F480819181840F951F029612
:1014900011969C938E938281938113969C938E9345
:1014A0001297E0E0F0E0D80112968D919C9113978D
:1014B000009719F0F8018C01F6CF8D919C9198015D
:1014C0002E5F3F4F820F931F2091A3013091A40103
:1014D0002817390769F4309729F41092A601109261
:1014E000A50102C0138212821093A4010093A301EC
:1014F000DF91CF911F910F91089510E0C2E6D0E0E7
:1015000003C0FE01C7DE2196C336D107D1F7F89498
:02151000FFCF0B
:101512000000A70180007B7C7D7E00000000AF0000
:10152200C8058B0003011C018E00040100000000AD
:04153200FA04FB04B8
:00000001FF
